{
  "contractName": "MyTahsinToken",
  "abi": [
    {
      "inputs": [
        {
          "internalType": "uint256",
          "name": "_initialSupply",
          "type": "uint256"
        }
      ],
      "stateMutability": "nonpayable",
      "type": "constructor"
    },
    {
      "anonymous": false,
      "inputs": [
        {
          "indexed": true,
          "internalType": "address",
          "name": "owner",
          "type": "address"
        },
        {
          "indexed": true,
          "internalType": "address",
          "name": "spender",
          "type": "address"
        },
        {
          "indexed": false,
          "internalType": "uint256",
          "name": "value",
          "type": "uint256"
        }
      ],
      "name": "Approval",
      "type": "event"
    },
    {
      "anonymous": false,
      "inputs": [
        {
          "indexed": false,
          "internalType": "address",
          "name": "from",
          "type": "address"
        },
        {
          "indexed": false,
          "internalType": "address",
          "name": "to",
          "type": "address"
        },
        {
          "indexed": false,
          "internalType": "uint256",
          "name": "amount",
          "type": "uint256"
        }
      ],
      "name": "THSNBuyEvent",
      "type": "event"
    },
    {
      "anonymous": false,
      "inputs": [
        {
          "indexed": false,
          "internalType": "address",
          "name": "from",
          "type": "address"
        },
        {
          "indexed": false,
          "internalType": "address",
          "name": "to",
          "type": "address"
        },
        {
          "indexed": false,
          "internalType": "uint256",
          "name": "amount",
          "type": "uint256"
        }
      ],
      "name": "THSNSellEvent",
      "type": "event"
    },
    {
      "anonymous": false,
      "inputs": [
        {
          "indexed": true,
          "internalType": "address",
          "name": "from",
          "type": "address"
        },
        {
          "indexed": true,
          "internalType": "address",
          "name": "to",
          "type": "address"
        },
        {
          "indexed": false,
          "internalType": "uint256",
          "name": "value",
          "type": "uint256"
        }
      ],
      "name": "Transfer",
      "type": "event"
    },
    {
      "inputs": [
        {
          "internalType": "address",
          "name": "owner",
          "type": "address"
        },
        {
          "internalType": "address",
          "name": "spender",
          "type": "address"
        }
      ],
      "name": "allowance",
      "outputs": [
        {
          "internalType": "uint256",
          "name": "",
          "type": "uint256"
        }
      ],
      "stateMutability": "view",
      "type": "function",
      "constant": true
    },
    {
      "inputs": [
        {
          "internalType": "address",
          "name": "spender",
          "type": "address"
        },
        {
          "internalType": "uint256",
          "name": "amount",
          "type": "uint256"
        }
      ],
      "name": "approve",
      "outputs": [
        {
          "internalType": "bool",
          "name": "",
          "type": "bool"
        }
      ],
      "stateMutability": "nonpayable",
      "type": "function"
    },
    {
      "inputs": [
        {
          "internalType": "address",
          "name": "account",
          "type": "address"
        }
      ],
      "name": "balanceOf",
      "outputs": [
        {
          "internalType": "uint256",
          "name": "",
          "type": "uint256"
        }
      ],
      "stateMutability": "view",
      "type": "function",
      "constant": true
    },
    {
      "inputs": [],
      "name": "decimals",
      "outputs": [
        {
          "internalType": "uint8",
          "name": "",
          "type": "uint8"
        }
      ],
      "stateMutability": "view",
      "type": "function",
      "constant": true
    },
    {
      "inputs": [
        {
          "internalType": "address",
          "name": "spender",
          "type": "address"
        },
        {
          "internalType": "uint256",
          "name": "subtractedValue",
          "type": "uint256"
        }
      ],
      "name": "decreaseAllowance",
      "outputs": [
        {
          "internalType": "bool",
          "name": "",
          "type": "bool"
        }
      ],
      "stateMutability": "nonpayable",
      "type": "function"
    },
    {
      "inputs": [
        {
          "internalType": "address",
          "name": "spender",
          "type": "address"
        },
        {
          "internalType": "uint256",
          "name": "addedValue",
          "type": "uint256"
        }
      ],
      "name": "increaseAllowance",
      "outputs": [
        {
          "internalType": "bool",
          "name": "",
          "type": "bool"
        }
      ],
      "stateMutability": "nonpayable",
      "type": "function"
    },
    {
      "inputs": [],
      "name": "name",
      "outputs": [
        {
          "internalType": "string",
          "name": "",
          "type": "string"
        }
      ],
      "stateMutability": "view",
      "type": "function",
      "constant": true
    },
    {
      "inputs": [],
      "name": "symbol",
      "outputs": [
        {
          "internalType": "string",
          "name": "",
          "type": "string"
        }
      ],
      "stateMutability": "view",
      "type": "function",
      "constant": true
    },
    {
      "inputs": [],
      "name": "totalSupply",
      "outputs": [
        {
          "internalType": "uint256",
          "name": "",
          "type": "uint256"
        }
      ],
      "stateMutability": "view",
      "type": "function",
      "constant": true
    },
    {
      "inputs": [
        {
          "internalType": "address",
          "name": "recipient",
          "type": "address"
        },
        {
          "internalType": "uint256",
          "name": "amount",
          "type": "uint256"
        }
      ],
      "name": "transfer",
      "outputs": [
        {
          "internalType": "bool",
          "name": "",
          "type": "bool"
        }
      ],
      "stateMutability": "nonpayable",
      "type": "function"
    },
    {
      "inputs": [
        {
          "internalType": "address",
          "name": "sender",
          "type": "address"
        },
        {
          "internalType": "address",
          "name": "recipient",
          "type": "address"
        },
        {
          "internalType": "uint256",
          "name": "amount",
          "type": "uint256"
        }
      ],
      "name": "transferFrom",
      "outputs": [
        {
          "internalType": "bool",
          "name": "",
          "type": "bool"
        }
      ],
      "stateMutability": "nonpayable",
      "type": "function"
    },
    {
      "inputs": [
        {
          "internalType": "uint256",
          "name": "_amount",
          "type": "uint256"
        }
      ],
      "name": "buyToken",
      "outputs": [],
      "stateMutability": "payable",
      "type": "function",
      "payable": true
    },
    {
      "inputs": [
        {
          "internalType": "uint256",
          "name": "_amount",
          "type": "uint256"
        }
      ],
      "name": "sellToken",
      "outputs": [],
      "stateMutability": "nonpayable",
      "type": "function"
    },
    {
      "inputs": [],
      "name": "withdrawEth",
      "outputs": [],
      "stateMutability": "nonpayable",
      "type": "function"
    }
  ],
  "bytecode": "0x60806040523480156200001157600080fd5b5060405162001e8538038062001e85833981810160405281019062000037919062000362565b6040518060400160405280600d81526020017f4d7954616873696e546f6b656e000000000000000000000000000000000000008152506040518060400160405280600481526020017f5448534e000000000000000000000000000000000000000000000000000000008152508160039080519060200190620000bb9291906200029b565b508060049080519060200190620000d49291906200029b565b505050620000e933826200013160201b60201c565b33600560006101000a81548173ffffffffffffffffffffffffffffffffffffffff021916908373ffffffffffffffffffffffffffffffffffffffff160217905550506200055f565b600073ffffffffffffffffffffffffffffffffffffffff168273ffffffffffffffffffffffffffffffffffffffff161415620001a4576040517f08c379a00000000000000000000000000000000000000000000000000000000081526004016200019b90620003cc565b60405180910390fd5b620001b8600083836200029660201b60201c565b8060026000828254620001cc91906200041c565b92505081905550806000808473ffffffffffffffffffffffffffffffffffffffff1673ffffffffffffffffffffffffffffffffffffffff16815260200190815260200160002060008282546200022391906200041c565b925050819055508173ffffffffffffffffffffffffffffffffffffffff16600073ffffffffffffffffffffffffffffffffffffffff167fddf252ad1be2c89b69c2b068fc378daa952ba7f163c4a11628f55a4df523b3ef836040516200028a9190620003ee565b60405180910390a35050565b505050565b828054620002a99062000483565b90600052602060002090601f016020900481019282620002cd576000855562000319565b82601f10620002e857805160ff191683800117855562000319565b8280016001018555821562000319579182015b8281111562000318578251825591602001919060010190620002fb565b5b5090506200032891906200032c565b5090565b5b80821115620003475760008160009055506001016200032d565b5090565b6000815190506200035c8162000545565b92915050565b6000602082840312156200037b576200037a62000517565b5b60006200038b848285016200034b565b91505092915050565b6000620003a3601f836200040b565b9150620003b0826200051c565b602082019050919050565b620003c68162000479565b82525050565b60006020820190508181036000830152620003e78162000394565b9050919050565b6000602082019050620004056000830184620003bb565b92915050565b600082825260208201905092915050565b6000620004298262000479565b9150620004368362000479565b9250827fffffffffffffffffffffffffffffffffffffffffffffffffffffffffffffffff038211156200046e576200046d620004b9565b5b828201905092915050565b6000819050919050565b600060028204905060018216806200049c57607f821691505b60208210811415620004b357620004b2620004e8565b5b50919050565b7f4e487b7100000000000000000000000000000000000000000000000000000000600052601160045260246000fd5b7f4e487b7100000000000000000000000000000000000000000000000000000000600052602260045260246000fd5b600080fd5b7f45524332303a206d696e7420746f20746865207a65726f206164647265737300600082015250565b620005508162000479565b81146200055c57600080fd5b50565b611916806200056f6000396000f3fe6080604052600436106100dd5760003560e01c8063395093511161007f578063a0ef91df11610059578063a0ef91df146102c7578063a457c2d7146102de578063a9059cbb1461031b578063dd62ed3e14610358576100dd565b8063395093511461022257806370a082311461025f57806395d89b411461029c576100dd565b80632397e4d7116100bb5780632397e4d71461017557806323b872dd1461019e5780632d296bf1146101db578063313ce567146101f7576100dd565b806306fdde03146100e2578063095ea7b31461010d57806318160ddd1461014a575b600080fd5b3480156100ee57600080fd5b506100f7610395565b60405161010491906112d4565b60405180910390f35b34801561011957600080fd5b50610134600480360381019061012f9190611088565b610427565b60405161014191906112b9565b60405180910390f35b34801561015657600080fd5b5061015f610445565b60405161016c91906113f6565b60405180910390f35b34801561018157600080fd5b5061019c600480360381019061019791906110c8565b61044f565b005b3480156101aa57600080fd5b506101c560048036038101906101c09190611035565b610528565b6040516101d291906112b9565b60405180910390f35b6101f560048036038101906101f091906110c8565b610629565b005b34801561020357600080fd5b5061020c61070c565b6040516102199190611411565b60405180910390f35b34801561022e57600080fd5b5061024960048036038101906102449190611088565b610715565b60405161025691906112b9565b60405180910390f35b34801561026b57600080fd5b5061028660048036038101906102819190610fc8565b6107c1565b60405161029391906113f6565b60405180910390f35b3480156102a857600080fd5b506102b1610809565b6040516102be91906112d4565b60405180910390f35b3480156102d357600080fd5b506102dc61089b565b005b3480156102ea57600080fd5b5061030560048036038101906103009190611088565b6109ae565b60405161031291906112b9565b60405180910390f35b34801561032757600080fd5b50610342600480360381019061033d9190611088565b610aa2565b60405161034f91906112b9565b60405180910390f35b34801561036457600080fd5b5061037f600480360381019061037a9190610ff5565b610ac0565b60405161038c91906113f6565b60405180910390f35b6060600380546103a49061158b565b80601f01602080910402602001604051908101604052809291908181526020018280546103d09061158b565b801561041d5780601f106103f25761010080835404028352916020019161041d565b820191906000526020600020905b81548152906001019060200180831161040057829003601f168201915b5050505050905090565b600061043b610434610b47565b8484610b4f565b6001905092915050565b6000600254905090565b80600660003373ffffffffffffffffffffffffffffffffffffffff1673ffffffffffffffffffffffffffffffffffffffff168152602001908152602001600020819055506104bf600560009054906101000a900473ffffffffffffffffffffffffffffffffffffffff1682610aa2565b506104c861089b565b7f0d8a94db31805ddb5f7ef5adea249bb98f9287f50e45403b594dd15aa23aceef33600560009054906101000a900473ffffffffffffffffffffffffffffffffffffffff168360405161051d93929190611282565b60405180910390a150565b6000610535848484610d1a565b6000600160008673ffffffffffffffffffffffffffffffffffffffff1673ffffffffffffffffffffffffffffffffffffffff1681526020019081526020016000206000610580610b47565b73ffffffffffffffffffffffffffffffffffffffff1673ffffffffffffffffffffffffffffffffffffffff16815260200190815260200160002054905082811015610600576040517f08c379a00000000000000000000000000000000000000000000000000000000081526004016105f790611356565b60405180910390fd5b61061d8561060c610b47565b858461061891906114cf565b610b4f565b60019150509392505050565b670de0b6b3a76400003461063d919061149e565b811461067e576040517f08c379a0000000000000000000000000000000000000000000000000000000008152600401610675906113b6565b60405180910390fd5b6106ab600560009054906101000a900473ffffffffffffffffffffffffffffffffffffffff163383610528565b507f8e197bd740379e5a90d3e04c7e8e89a79fd3652b67bb572a43d337d960b766a7600560009054906101000a900473ffffffffffffffffffffffffffffffffffffffff16338360405161070193929190611282565b60405180910390a150565b60006012905090565b60006107b7610722610b47565b848460016000610730610b47565b73ffffffffffffffffffffffffffffffffffffffff1673ffffffffffffffffffffffffffffffffffffffff16815260200190815260200160002060008873ffffffffffffffffffffffffffffffffffffffff1673ffffffffffffffffffffffffffffffffffffffff168152602001908152602001600020546107b29190611448565b610b4f565b6001905092915050565b60008060008373ffffffffffffffffffffffffffffffffffffffff1673ffffffffffffffffffffffffffffffffffffffff168152602001908152602001600020549050919050565b6060600480546108189061158b565b80601f01602080910402602001604051908101604052809291908181526020018280546108449061158b565b80156108915780601f1061086657610100808354040283529160200191610891565b820191906000526020600020905b81548152906001019060200180831161087457829003601f168201915b5050505050905090565b6000600660003373ffffffffffffffffffffffffffffffffffffffff1673ffffffffffffffffffffffffffffffffffffffff168152602001908152602001600020549050600660003373ffffffffffffffffffffffffffffffffffffffff1673ffffffffffffffffffffffffffffffffffffffff168152602001908152602001600020506000600660003373ffffffffffffffffffffffffffffffffffffffff1673ffffffffffffffffffffffffffffffffffffffff168152602001908152602001600020819055503373ffffffffffffffffffffffffffffffffffffffff166108fc829081150290604051600060405180830381858888f193505050501580156109aa573d6000803e3d6000fd5b5050565b600080600160006109bd610b47565b73ffffffffffffffffffffffffffffffffffffffff1673ffffffffffffffffffffffffffffffffffffffff16815260200190815260200160002060008573ffffffffffffffffffffffffffffffffffffffff1673ffffffffffffffffffffffffffffffffffffffff16815260200190815260200160002054905082811015610a7a576040517f08c379a0000000000000000000000000000000000000000000000000000000008152600401610a71906113d6565b60405180910390fd5b610a97610a85610b47565b858584610a9291906114cf565b610b4f565b600191505092915050565b6000610ab6610aaf610b47565b8484610d1a565b6001905092915050565b6000600160008473ffffffffffffffffffffffffffffffffffffffff1673ffffffffffffffffffffffffffffffffffffffff16815260200190815260200160002060008373ffffffffffffffffffffffffffffffffffffffff1673ffffffffffffffffffffffffffffffffffffffff16815260200190815260200160002054905092915050565b600033905090565b600073ffffffffffffffffffffffffffffffffffffffff168373ffffffffffffffffffffffffffffffffffffffff161415610bbf576040517f08c379a0000000000000000000000000000000000000000000000000000000008152600401610bb690611396565b60405180910390fd5b600073ffffffffffffffffffffffffffffffffffffffff168273ffffffffffffffffffffffffffffffffffffffff161415610c2f576040517f08c379a0000000000000000000000000000000000000000000000000000000008152600401610c2690611316565b60405180910390fd5b80600160008573ffffffffffffffffffffffffffffffffffffffff1673ffffffffffffffffffffffffffffffffffffffff16815260200190815260200160002060008473ffffffffffffffffffffffffffffffffffffffff1673ffffffffffffffffffffffffffffffffffffffff168152602001908152602001600020819055508173ffffffffffffffffffffffffffffffffffffffff168373ffffffffffffffffffffffffffffffffffffffff167f8c5be1e5ebec7d5bd14f71427d1e84f3dd0314c0f7b2291e5b200ac8c7c3b92583604051610d0d91906113f6565b60405180910390a3505050565b600073ffffffffffffffffffffffffffffffffffffffff168373ffffffffffffffffffffffffffffffffffffffff161415610d8a576040517f08c379a0000000000000000000000000000000000000000000000000000000008152600401610d8190611376565b60405180910390fd5b600073ffffffffffffffffffffffffffffffffffffffff168273ffffffffffffffffffffffffffffffffffffffff161415610dfa576040517f08c379a0000000000000000000000000000000000000000000000000000000008152600401610df1906112f6565b60405180910390fd5b610e05838383610f99565b60008060008573ffffffffffffffffffffffffffffffffffffffff1673ffffffffffffffffffffffffffffffffffffffff16815260200190815260200160002054905081811015610e8b576040517f08c379a0000000000000000000000000000000000000000000000000000000008152600401610e8290611336565b60405180910390fd5b8181610e9791906114cf565b6000808673ffffffffffffffffffffffffffffffffffffffff1673ffffffffffffffffffffffffffffffffffffffff16815260200190815260200160002081905550816000808573ffffffffffffffffffffffffffffffffffffffff1673ffffffffffffffffffffffffffffffffffffffff1681526020019081526020016000206000828254610f279190611448565b925050819055508273ffffffffffffffffffffffffffffffffffffffff168473ffffffffffffffffffffffffffffffffffffffff167fddf252ad1be2c89b69c2b068fc378daa952ba7f163c4a11628f55a4df523b3ef84604051610f8b91906113f6565b60405180910390a350505050565b505050565b600081359050610fad816118b2565b92915050565b600081359050610fc2816118c9565b92915050565b600060208284031215610fde57610fdd61164a565b5b6000610fec84828501610f9e565b91505092915050565b6000806040838503121561100c5761100b61164a565b5b600061101a85828601610f9e565b925050602061102b85828601610f9e565b9150509250929050565b60008060006060848603121561104e5761104d61164a565b5b600061105c86828701610f9e565b935050602061106d86828701610f9e565b925050604061107e86828701610fb3565b9150509250925092565b6000806040838503121561109f5761109e61164a565b5b60006110ad85828601610f9e565b92505060206110be85828601610fb3565b9150509250929050565b6000602082840312156110de576110dd61164a565b5b60006110ec84828501610fb3565b91505092915050565b6110fe81611503565b82525050565b61110d81611515565b82525050565b600061111e8261142c565b6111288185611437565b9350611138818560208601611558565b6111418161164f565b840191505092915050565b6000611159602383611437565b915061116482611660565b604082019050919050565b600061117c602283611437565b9150611187826116af565b604082019050919050565b600061119f602683611437565b91506111aa826116fe565b604082019050919050565b60006111c2602883611437565b91506111cd8261174d565b604082019050919050565b60006111e5602583611437565b91506111f08261179c565b604082019050919050565b6000611208602483611437565b9150611213826117eb565b604082019050919050565b600061122b601083611437565b91506112368261183a565b602082019050919050565b600061124e602583611437565b915061125982611863565b604082019050919050565b61126d81611541565b82525050565b61127c8161154b565b82525050565b600060608201905061129760008301866110f5565b6112a460208301856110f5565b6112b16040830184611264565b949350505050565b60006020820190506112ce6000830184611104565b92915050565b600060208201905081810360008301526112ee8184611113565b905092915050565b6000602082019050818103600083015261130f8161114c565b9050919050565b6000602082019050818103600083015261132f8161116f565b9050919050565b6000602082019050818103600083015261134f81611192565b9050919050565b6000602082019050818103600083015261136f816111b5565b9050919050565b6000602082019050818103600083015261138f816111d8565b9050919050565b600060208201905081810360008301526113af816111fb565b9050919050565b600060208201905081810360008301526113cf8161121e565b9050919050565b600060208201905081810360008301526113ef81611241565b9050919050565b600060208201905061140b6000830184611264565b92915050565b60006020820190506114266000830184611273565b92915050565b600081519050919050565b600082825260208201905092915050565b600061145382611541565b915061145e83611541565b9250827fffffffffffffffffffffffffffffffffffffffffffffffffffffffffffffffff03821115611493576114926115bd565b5b828201905092915050565b60006114a982611541565b91506114b483611541565b9250826114c4576114c36115ec565b5b828204905092915050565b60006114da82611541565b91506114e583611541565b9250828210156114f8576114f76115bd565b5b828203905092915050565b600061150e82611521565b9050919050565b60008115159050919050565b600073ffffffffffffffffffffffffffffffffffffffff82169050919050565b6000819050919050565b600060ff82169050919050565b60005b8381101561157657808201518184015260208101905061155b565b83811115611585576000848401525b50505050565b600060028204905060018216806115a357607f821691505b602082108114156115b7576115b661161b565b5b50919050565b7f4e487b7100000000000000000000000000000000000000000000000000000000600052601160045260246000fd5b7f4e487b7100000000000000000000000000000000000000000000000000000000600052601260045260246000fd5b7f4e487b7100000000000000000000000000000000000000000000000000000000600052602260045260246000fd5b600080fd5b6000601f19601f8301169050919050565b7f45524332303a207472616e7366657220746f20746865207a65726f206164647260008201527f6573730000000000000000000000000000000000000000000000000000000000602082015250565b7f45524332303a20617070726f766520746f20746865207a65726f20616464726560008201527f7373000000000000000000000000000000000000000000000000000000000000602082015250565b7f45524332303a207472616e7366657220616d6f756e742065786365656473206260008201527f616c616e63650000000000000000000000000000000000000000000000000000602082015250565b7f45524332303a207472616e7366657220616d6f756e742065786365656473206160008201527f6c6c6f77616e6365000000000000000000000000000000000000000000000000602082015250565b7f45524332303a207472616e736665722066726f6d20746865207a65726f20616460008201527f6472657373000000000000000000000000000000000000000000000000000000602082015250565b7f45524332303a20617070726f76652066726f6d20746865207a65726f2061646460008201527f7265737300000000000000000000000000000000000000000000000000000000602082015250565b7f496e636f727265637420616d6f756e7400000000000000000000000000000000600082015250565b7f45524332303a2064656372656173656420616c6c6f77616e63652062656c6f7760008201527f207a65726f000000000000000000000000000000000000000000000000000000602082015250565b6118bb81611503565b81146118c657600080fd5b50565b6118d281611541565b81146118dd57600080fd5b5056fea2646970667358221220e877d613251fd77d6c7480e8a23dfe631a75aef2c6e1229c38b4c505a35dd31464736f6c63430008060033",
  "immutableReferences": {},
  "source": "// SPDX-License-Identifier: Unlicense\npragma solidity ^0.8.0;\n\nimport \"@openzeppelin/contracts/token/ERC20/ERC20.sol\";\n\ncontract MyTahsinToken is ERC20 {\n    event THSNBuyEvent(address from, address to, uint256 amount);\n    event THSNSellEvent(address from, address to, uint256 amount);\n    address private owner;\n    mapping(address => uint256) pendingWithdrawals;\n\n    constructor(uint256 _initialSupply) public ERC20(\"MyTahsinToken\", \"THSN\") {\n        _mint(msg.sender, _initialSupply);\n        owner = msg.sender;\n    }\n\n    function buyToken(uint256 _amount) external payable {\n        require(_amount == ((msg.value / 1 ether)), \"Incorrect amount\");\n        transferFrom(owner, msg.sender, _amount);\n        emit THSNBuyEvent(owner, msg.sender, _amount);\n    }\n\n    function sellToken(uint256 _amount) public {\n        pendingWithdrawals[msg.sender] = _amount;\n        transfer(owner, _amount);\n        withdrawEth();\n        emit THSNSellEvent(msg.sender, owner, _amount);\n    }\n\n    function withdrawEth() public {\n        uint256 amount = pendingWithdrawals[msg.sender];\n        pendingWithdrawals[msg.sender];\n        pendingWithdrawals[msg.sender] = 0;\n        payable(msg.sender).transfer(amount);\n    }\n}\n",
  "sourcePath": "/Users/tahsinyazkan/Code/crypto/erc20-thsn/contracts/Tahsin.sol",
  "compiler": {
    "name": "solc",
    "version": "0.8.6+commit.11564f7e.Emscripten.clang"
  },
  "schemaVersion": "3.4.1",
  "updatedAt": "2021-06-24T11:25:41.787Z",
  "networkType": "ethereum",
  "devdoc": {
    "kind": "dev",
    "methods": {
      "allowance(address,address)": {
        "details": "See {IERC20-allowance}."
      },
      "approve(address,uint256)": {
        "details": "See {IERC20-approve}. Requirements: - `spender` cannot be the zero address."
      },
      "balanceOf(address)": {
        "details": "See {IERC20-balanceOf}."
      },
      "decimals()": {
        "details": "Returns the number of decimals used to get its user representation. For example, if `decimals` equals `2`, a balance of `505` tokens should be displayed to a user as `5,05` (`505 / 10 ** 2`). Tokens usually opt for a value of 18, imitating the relationship between Ether and Wei. This is the value {ERC20} uses, unless this function is overridden; NOTE: This information is only used for _display_ purposes: it in no way affects any of the arithmetic of the contract, including {IERC20-balanceOf} and {IERC20-transfer}."
      },
      "decreaseAllowance(address,uint256)": {
        "details": "Atomically decreases the allowance granted to `spender` by the caller. This is an alternative to {approve} that can be used as a mitigation for problems described in {IERC20-approve}. Emits an {Approval} event indicating the updated allowance. Requirements: - `spender` cannot be the zero address. - `spender` must have allowance for the caller of at least `subtractedValue`."
      },
      "increaseAllowance(address,uint256)": {
        "details": "Atomically increases the allowance granted to `spender` by the caller. This is an alternative to {approve} that can be used as a mitigation for problems described in {IERC20-approve}. Emits an {Approval} event indicating the updated allowance. Requirements: - `spender` cannot be the zero address."
      },
      "name()": {
        "details": "Returns the name of the token."
      },
      "symbol()": {
        "details": "Returns the symbol of the token, usually a shorter version of the name."
      },
      "totalSupply()": {
        "details": "See {IERC20-totalSupply}."
      },
      "transfer(address,uint256)": {
        "details": "See {IERC20-transfer}. Requirements: - `recipient` cannot be the zero address. - the caller must have a balance of at least `amount`."
      },
      "transferFrom(address,address,uint256)": {
        "details": "See {IERC20-transferFrom}. Emits an {Approval} event indicating the updated allowance. This is not required by the EIP. See the note at the beginning of {ERC20}. Requirements: - `sender` and `recipient` cannot be the zero address. - `sender` must have a balance of at least `amount`. - the caller must have allowance for ``sender``'s tokens of at least `amount`."
      }
    },
    "version": 1
  },
  "userdoc": {
    "kind": "user",
    "methods": {},
    "version": 1
  }
}